{
  "_format": "hh-sol-artifact-1",
  "contractName": "BlackGlove",
  "sourceName": "contracts/BlackGlove.sol",
  "abi": [
    {
      "inputs": [
        {
          "internalType": "bytes32",
          "name": "_root",
          "type": "bytes32"
        },
        {
          "internalType": "string",
          "name": "_initBaseURI",
          "type": "string"
        },
        {
          "internalType": "address",
          "name": "_tokenAddress",
          "type": "address"
        }
      ],
      "stateMutability": "nonpayable",
      "type": "constructor"
    },
    {
      "anonymous": false,
      "inputs": [
        {
          "indexed": true,
          "internalType": "address",
          "name": "owner",
          "type": "address"
        },
        {
          "indexed": true,
          "internalType": "address",
          "name": "approved",
          "type": "address"
        },
        {
          "indexed": true,
          "internalType": "uint256",
          "name": "tokenId",
          "type": "uint256"
        }
      ],
      "name": "Approval",
      "type": "event"
    },
    {
      "anonymous": false,
      "inputs": [
        {
          "indexed": true,
          "internalType": "address",
          "name": "owner",
          "type": "address"
        },
        {
          "indexed": true,
          "internalType": "address",
          "name": "operator",
          "type": "address"
        },
        {
          "indexed": false,
          "internalType": "bool",
          "name": "approved",
          "type": "bool"
        }
      ],
      "name": "ApprovalForAll",
      "type": "event"
    },
    {
      "anonymous": false,
      "inputs": [
        {
          "indexed": true,
          "internalType": "address",
          "name": "previousOwner",
          "type": "address"
        },
        {
          "indexed": true,
          "internalType": "address",
          "name": "newOwner",
          "type": "address"
        }
      ],
      "name": "OwnershipTransferred",
      "type": "event"
    },
    {
      "anonymous": false,
      "inputs": [
        {
          "indexed": true,
          "internalType": "address",
          "name": "from",
          "type": "address"
        },
        {
          "indexed": true,
          "internalType": "address",
          "name": "to",
          "type": "address"
        },
        {
          "indexed": true,
          "internalType": "uint256",
          "name": "tokenId",
          "type": "uint256"
        }
      ],
      "name": "Transfer",
      "type": "event"
    },
    {
      "inputs": [],
      "name": "MATIC",
      "outputs": [
        {
          "internalType": "address",
          "name": "",
          "type": "address"
        }
      ],
      "stateMutability": "view",
      "type": "function"
    },
    {
      "inputs": [
        {
          "internalType": "address",
          "name": "",
          "type": "address"
        }
      ],
      "name": "addressMintedBalance",
      "outputs": [
        {
          "internalType": "uint256",
          "name": "",
          "type": "uint256"
        }
      ],
      "stateMutability": "view",
      "type": "function"
    },
    {
      "inputs": [
        {
          "internalType": "address",
          "name": "to",
          "type": "address"
        },
        {
          "internalType": "uint256",
          "name": "tokenId",
          "type": "uint256"
        }
      ],
      "name": "approve",
      "outputs": [],
      "stateMutability": "nonpayable",
      "type": "function"
    },
    {
      "inputs": [
        {
          "internalType": "address",
          "name": "owner",
          "type": "address"
        }
      ],
      "name": "balanceOf",
      "outputs": [
        {
          "internalType": "uint256",
          "name": "",
          "type": "uint256"
        }
      ],
      "stateMutability": "view",
      "type": "function"
    },
    {
      "inputs": [],
      "name": "baseExtension",
      "outputs": [
        {
          "internalType": "string",
          "name": "",
          "type": "string"
        }
      ],
      "stateMutability": "view",
      "type": "function"
    },
    {
      "inputs": [],
      "name": "baseURI",
      "outputs": [
        {
          "internalType": "string",
          "name": "",
          "type": "string"
        }
      ],
      "stateMutability": "view",
      "type": "function"
    },
    {
      "inputs": [
        {
          "internalType": "address",
          "name": "",
          "type": "address"
        }
      ],
      "name": "claimed",
      "outputs": [
        {
          "internalType": "bool",
          "name": "",
          "type": "bool"
        }
      ],
      "stateMutability": "view",
      "type": "function"
    },
    {
      "inputs": [],
      "name": "discountedPrice",
      "outputs": [
        {
          "internalType": "uint16",
          "name": "",
          "type": "uint16"
        }
      ],
      "stateMutability": "view",
      "type": "function"
    },
    {
      "inputs": [],
      "name": "duration",
      "outputs": [
        {
          "internalType": "uint256",
          "name": "",
          "type": "uint256"
        }
      ],
      "stateMutability": "view",
      "type": "function"
    },
    {
      "inputs": [],
      "name": "end",
      "outputs": [
        {
          "internalType": "uint256",
          "name": "",
          "type": "uint256"
        }
      ],
      "stateMutability": "view",
      "type": "function"
    },
    {
      "inputs": [
        {
          "internalType": "uint256",
          "name": "tokenId",
          "type": "uint256"
        }
      ],
      "name": "getApproved",
      "outputs": [
        {
          "internalType": "address",
          "name": "",
          "type": "address"
        }
      ],
      "stateMutability": "view",
      "type": "function"
    },
    {
      "inputs": [
        {
          "internalType": "address",
          "name": "",
          "type": "address"
        }
      ],
      "name": "holders",
      "outputs": [
        {
          "internalType": "uint256",
          "name": "",
          "type": "uint256"
        }
      ],
      "stateMutability": "view",
      "type": "function"
    },
    {
      "inputs": [
        {
          "internalType": "address",
          "name": "owner",
          "type": "address"
        },
        {
          "internalType": "address",
          "name": "operator",
          "type": "address"
        }
      ],
      "name": "isApprovedForAll",
      "outputs": [
        {
          "internalType": "bool",
          "name": "",
          "type": "bool"
        }
      ],
      "stateMutability": "view",
      "type": "function"
    },
    {
      "inputs": [
        {
          "internalType": "bytes32[]",
          "name": "proof",
          "type": "bytes32[]"
        },
        {
          "internalType": "bytes32",
          "name": "leaf",
          "type": "bytes32"
        }
      ],
      "name": "isValid",
      "outputs": [
        {
          "internalType": "bool",
          "name": "",
          "type": "bool"
        }
      ],
      "stateMutability": "view",
      "type": "function"
    },
    {
      "inputs": [],
      "name": "maxSupply",
      "outputs": [
        {
          "internalType": "uint256",
          "name": "",
          "type": "uint256"
        }
      ],
      "stateMutability": "view",
      "type": "function"
    },
    {
      "inputs": [
        {
          "internalType": "bytes32[]",
          "name": "proof",
          "type": "bytes32[]"
        }
      ],
      "name": "mint",
      "outputs": [],
      "stateMutability": "payable",
      "type": "function"
    },
    {
      "inputs": [],
      "name": "name",
      "outputs": [
        {
          "internalType": "string",
          "name": "",
          "type": "string"
        }
      ],
      "stateMutability": "view",
      "type": "function"
    },
    {
      "inputs": [],
      "name": "owner",
      "outputs": [
        {
          "internalType": "address",
          "name": "",
          "type": "address"
        }
      ],
      "stateMutability": "view",
      "type": "function"
    },
    {
      "inputs": [
        {
          "internalType": "uint256",
          "name": "tokenId",
          "type": "uint256"
        }
      ],
      "name": "ownerOf",
      "outputs": [
        {
          "internalType": "address",
          "name": "",
          "type": "address"
        }
      ],
      "stateMutability": "view",
      "type": "function"
    },
    {
      "inputs": [],
      "name": "pause",
      "outputs": [],
      "stateMutability": "nonpayable",
      "type": "function"
    },
    {
      "inputs": [],
      "name": "paused",
      "outputs": [
        {
          "internalType": "bool",
          "name": "",
          "type": "bool"
        }
      ],
      "stateMutability": "view",
      "type": "function"
    },
    {
      "inputs": [],
      "name": "price",
      "outputs": [
        {
          "internalType": "uint16",
          "name": "",
          "type": "uint16"
        }
      ],
      "stateMutability": "view",
      "type": "function"
    },
    {
      "inputs": [],
      "name": "renounceOwnership",
      "outputs": [],
      "stateMutability": "nonpayable",
      "type": "function"
    },
    {
      "inputs": [],
      "name": "root",
      "outputs": [
        {
          "internalType": "bytes32",
          "name": "",
          "type": "bytes32"
        }
      ],
      "stateMutability": "view",
      "type": "function"
    },
    {
      "inputs": [
        {
          "internalType": "address",
          "name": "from",
          "type": "address"
        },
        {
          "internalType": "address",
          "name": "to",
          "type": "address"
        },
        {
          "internalType": "uint256",
          "name": "tokenId",
          "type": "uint256"
        }
      ],
      "name": "safeTransferFrom",
      "outputs": [],
      "stateMutability": "nonpayable",
      "type": "function"
    },
    {
      "inputs": [
        {
          "internalType": "address",
          "name": "from",
          "type": "address"
        },
        {
          "internalType": "address",
          "name": "to",
          "type": "address"
        },
        {
          "internalType": "uint256",
          "name": "tokenId",
          "type": "uint256"
        },
        {
          "internalType": "bytes",
          "name": "data",
          "type": "bytes"
        }
      ],
      "name": "safeTransferFrom",
      "outputs": [],
      "stateMutability": "nonpayable",
      "type": "function"
    },
    {
      "inputs": [
        {
          "internalType": "address",
          "name": "operator",
          "type": "address"
        },
        {
          "internalType": "bool",
          "name": "approved",
          "type": "bool"
        }
      ],
      "name": "setApprovalForAll",
      "outputs": [],
      "stateMutability": "nonpayable",
      "type": "function"
    },
    {
      "inputs": [
        {
          "internalType": "string",
          "name": "_newBaseExtension",
          "type": "string"
        }
      ],
      "name": "setBaseExtension",
      "outputs": [],
      "stateMutability": "nonpayable",
      "type": "function"
    },
    {
      "inputs": [
        {
          "internalType": "string",
          "name": "_newBaseURI",
          "type": "string"
        }
      ],
      "name": "setBaseURI",
      "outputs": [],
      "stateMutability": "nonpayable",
      "type": "function"
    },
    {
      "inputs": [
        {
          "internalType": "bytes4",
          "name": "interfaceId",
          "type": "bytes4"
        }
      ],
      "name": "supportsInterface",
      "outputs": [
        {
          "internalType": "bool",
          "name": "",
          "type": "bool"
        }
      ],
      "stateMutability": "view",
      "type": "function"
    },
    {
      "inputs": [],
      "name": "symbol",
      "outputs": [
        {
          "internalType": "string",
          "name": "",
          "type": "string"
        }
      ],
      "stateMutability": "view",
      "type": "function"
    },
    {
      "inputs": [
        {
          "internalType": "uint256",
          "name": "index",
          "type": "uint256"
        }
      ],
      "name": "tokenByIndex",
      "outputs": [
        {
          "internalType": "uint256",
          "name": "",
          "type": "uint256"
        }
      ],
      "stateMutability": "view",
      "type": "function"
    },
    {
      "inputs": [
        {
          "internalType": "address",
          "name": "owner",
          "type": "address"
        },
        {
          "internalType": "uint256",
          "name": "index",
          "type": "uint256"
        }
      ],
      "name": "tokenOfOwnerByIndex",
      "outputs": [
        {
          "internalType": "uint256",
          "name": "",
          "type": "uint256"
        }
      ],
      "stateMutability": "view",
      "type": "function"
    },
    {
      "inputs": [
        {
          "internalType": "uint256",
          "name": "tokenId",
          "type": "uint256"
        }
      ],
      "name": "tokenURI",
      "outputs": [
        {
          "internalType": "string",
          "name": "",
          "type": "string"
        }
      ],
      "stateMutability": "view",
      "type": "function"
    },
    {
      "inputs": [],
      "name": "totalSupply",
      "outputs": [
        {
          "internalType": "uint256",
          "name": "",
          "type": "uint256"
        }
      ],
      "stateMutability": "view",
      "type": "function"
    },
    {
      "inputs": [
        {
          "internalType": "address",
          "name": "from",
          "type": "address"
        },
        {
          "internalType": "address",
          "name": "to",
          "type": "address"
        },
        {
          "internalType": "uint256",
          "name": "tokenId",
          "type": "uint256"
        }
      ],
      "name": "transferFrom",
      "outputs": [],
      "stateMutability": "nonpayable",
      "type": "function"
    },
    {
      "inputs": [
        {
          "internalType": "address",
          "name": "newOwner",
          "type": "address"
        }
      ],
      "name": "transferOwnership",
      "outputs": [],
      "stateMutability": "nonpayable",
      "type": "function"
    },
    {
      "inputs": [],
      "name": "unpause",
      "outputs": [],
      "stateMutability": "nonpayable",
      "type": "function"
    },
    {
      "inputs": [],
      "name": "withdraw",
      "outputs": [],
      "stateMutability": "payable",
      "type": "function"
    }
  ],
  "bytecode": "0x60c0604052610258600c60006101000a81548161ffff021916908361ffff16021790555061028a600c60026101000a81548161ffff021916908361ffff1602179055506040518060400160405280600581526020017f2e6a736f6e000000000000000000000000000000000000000000000000000000815250600e90805190602001906200008f9291906200041b565b506103e8600f556000601060006101000a81548160ff021916908315150217905550733eb231c0513ee1f07306c2919ff5f9ee9308407f601060016101000a81548173ffffffffffffffffffffffffffffffffffffffff021916908373ffffffffffffffffffffffffffffffffffffffff1602179055503480156200011357600080fd5b5060405162004bba38038062004bba833981810160405281019062000139919062000708565b6040518060400160405280601681526020017f466967687420436c756220426c61636b20476c6f7665000000000000000000008152506040518060400160405280600481526020017f46474247000000000000000000000000000000000000000000000000000000008152508160009080519060200190620001bd9291906200041b565b508060019080519060200190620001d69291906200041b565b505050620001f9620001ed6200026660201b60201c565b6200026e60201b60201c565b8260128190555062000211826200033460201b60201c565b6201518042620002229190620007bc565b60a081815250508073ffffffffffffffffffffffffffffffffffffffff1660808173ffffffffffffffffffffffffffffffffffffffff168152505050505062000901565b600033905090565b6000600a60009054906101000a900473ffffffffffffffffffffffffffffffffffffffff16905081600a60006101000a81548173ffffffffffffffffffffffffffffffffffffffff021916908373ffffffffffffffffffffffffffffffffffffffff1602179055508173ffffffffffffffffffffffffffffffffffffffff168173ffffffffffffffffffffffffffffffffffffffff167f8be0079c531659141344cd1fd0a4f28419497f9722a3daafe3b4186f6b6457e060405160405180910390a35050565b620003446200036060201b60201c565b80600d90805190602001906200035c9291906200041b565b5050565b620003706200026660201b60201c565b73ffffffffffffffffffffffffffffffffffffffff1662000396620003f160201b60201c565b73ffffffffffffffffffffffffffffffffffffffff1614620003ef576040517f08c379a0000000000000000000000000000000000000000000000000000000008152600401620003e6906200087a565b60405180910390fd5b565b6000600a60009054906101000a900473ffffffffffffffffffffffffffffffffffffffff16905090565b8280546200042990620008cb565b90600052602060002090601f0160209004810192826200044d576000855562000499565b82601f106200046857805160ff191683800117855562000499565b8280016001018555821562000499579182015b82811115620004985782518255916020019190600101906200047b565b5b509050620004a89190620004ac565b5090565b5b80821115620004c7576000816000905550600101620004ad565b5090565b6000604051905090565b600080fd5b600080fd5b6000819050919050565b620004f481620004df565b81146200050057600080fd5b50565b6000815190506200051481620004e9565b92915050565b600080fd5b600080fd5b6000601f19601f8301169050919050565b7f4e487b7100000000000000000000000000000000000000000000000000000000600052604160045260246000fd5b6200056f8262000524565b810181811067ffffffffffffffff8211171562000591576200059062000535565b5b80604052505050565b6000620005a6620004cb565b9050620005b4828262000564565b919050565b600067ffffffffffffffff821115620005d757620005d662000535565b5b620005e28262000524565b9050602081019050919050565b60005b838110156200060f578082015181840152602081019050620005f2565b838111156200061f576000848401525b50505050565b60006200063c6200063684620005b9565b6200059a565b9050828152602081018484840111156200065b576200065a6200051f565b5b62000668848285620005ef565b509392505050565b600082601f8301126200068857620006876200051a565b5b81516200069a84826020860162000625565b91505092915050565b600073ffffffffffffffffffffffffffffffffffffffff82169050919050565b6000620006d082620006a3565b9050919050565b620006e281620006c3565b8114620006ee57600080fd5b50565b6000815190506200070281620006d7565b92915050565b600080600060608486031215620007245762000723620004d5565b5b6000620007348682870162000503565b935050602084015167ffffffffffffffff811115620007585762000757620004da565b5b620007668682870162000670565b92505060406200077986828701620006f1565b9150509250925092565b6000819050919050565b7f4e487b7100000000000000000000000000000000000000000000000000000000600052601160045260246000fd5b6000620007c98262000783565b9150620007d68362000783565b9250827fffffffffffffffffffffffffffffffffffffffffffffffffffffffffffffffff038211156200080e576200080d6200078d565b5b828201905092915050565b600082825260208201905092915050565b7f4f776e61626c653a2063616c6c6572206973206e6f7420746865206f776e6572600082015250565b60006200086260208362000819565b91506200086f826200082a565b602082019050919050565b60006020820190508181036000830152620008958162000853565b9050919050565b7f4e487b7100000000000000000000000000000000000000000000000000000000600052602260045260246000fd5b60006002820490506001821680620008e457607f821691505b60208210811415620008fb57620008fa6200089c565b5b50919050565b60805160a05161428c6200092e60003960008181611458015261175601526000610b91015261428c6000f3fe6080604052600436106102305760003560e01c806370a082311161012e578063c6682862116100ab578063da3ef23f1161006f578063da3ef23f14610839578063e985e9c514610862578063ebf0c7171461089f578063efbe1c1c146108ca578063f2fde38b146108f557610230565b8063c66828621461073e578063c878813414610769578063c87b56dd14610794578063c884ef83146107d1578063d5abeb011461080e57610230565b8063a035b1fe116100f2578063a035b1fe14610668578063a22cb46514610693578063b77a147b146106bc578063b88d4fde146106d8578063b8a20ed01461070157610230565b806370a08231146105a7578063715018a6146105e45780638456cb59146105fb5780638da5cb5b1461061257806395d89b411461063d57610230565b806323b872dd116101bc5780634f6ccce7116101805780634f6ccce7146104ae57806355f804b3146104eb5780635c975abb146105145780636352211e1461053f5780636c0360eb1461057c57610230565b806323b872dd146103fe5780632f745c59146104275780633ccfd60b146104645780633f4ba83a1461046e57806342842e0e1461048557610230565b80630fb5a6b4116102035780630fb5a6b41461030357806315b550d61461032e57806318160ddd1461035957806318a5bbdc1461038457806318cae269146103c157610230565b806301ffc9a71461023557806306fdde0314610272578063081812fc1461029d578063095ea7b3146102da575b600080fd5b34801561024157600080fd5b5061025c60048036038101906102579190612b82565b61091e565b6040516102699190612bca565b60405180910390f35b34801561027e57600080fd5b50610287610998565b6040516102949190612c7e565b60405180910390f35b3480156102a957600080fd5b506102c460048036038101906102bf9190612cd6565b610a2a565b6040516102d19190612d44565b60405180910390f35b3480156102e657600080fd5b5061030160048036038101906102fc9190612d8b565b610a70565b005b34801561030f57600080fd5b50610318610b88565b6040516103259190612dda565b60405180910390f35b34801561033a57600080fd5b50610343610b8f565b6040516103509190612d44565b60405180910390f35b34801561036557600080fd5b5061036e610bb3565b60405161037b9190612dda565b60405180910390f35b34801561039057600080fd5b506103ab60048036038101906103a69190612df5565b610bc0565b6040516103b89190612dda565b60405180910390f35b3480156103cd57600080fd5b506103e860048036038101906103e39190612df5565b610bd8565b6040516103f59190612dda565b60405180910390f35b34801561040a57600080fd5b5061042560048036038101906104209190612e22565b610bf0565b005b34801561043357600080fd5b5061044e60048036038101906104499190612d8b565b610c50565b60405161045b9190612dda565b60405180910390f35b61046c610cf5565b005b34801561047a57600080fd5b50610483610e20565b005b34801561049157600080fd5b506104ac60048036038101906104a79190612e22565b610e45565b005b3480156104ba57600080fd5b506104d560048036038101906104d09190612cd6565b610e65565b6040516104e29190612dda565b60405180910390f35b3480156104f757600080fd5b50610512600480360381019061050d9190612faa565b610ed6565b005b34801561052057600080fd5b50610529610ef8565b6040516105369190612bca565b60405180910390f35b34801561054b57600080fd5b5061056660048036038101906105619190612cd6565b610f0b565b6040516105739190612d44565b60405180910390f35b34801561058857600080fd5b50610591610fbd565b60405161059e9190612c7e565b60405180910390f35b3480156105b357600080fd5b506105ce60048036038101906105c99190612df5565b61104b565b6040516105db9190612dda565b60405180910390f35b3480156105f057600080fd5b506105f9611103565b005b34801561060757600080fd5b50610610611117565b005b34801561061e57600080fd5b5061062761113c565b6040516106349190612d44565b60405180910390f35b34801561064957600080fd5b50610652611166565b60405161065f9190612c7e565b60405180910390f35b34801561067457600080fd5b5061067d6111f8565b60405161068a9190613010565b60405180910390f35b34801561069f57600080fd5b506106ba60048036038101906106b59190613057565b61120c565b005b6106d660048036038101906106d191906130f7565b611222565b005b3480156106e457600080fd5b506106ff60048036038101906106fa91906131e5565b6114ba565b005b34801561070d57600080fd5b5061072860048036038101906107239190613361565b61151c565b6040516107359190612bca565b60405180910390f35b34801561074a57600080fd5b50610753611533565b6040516107609190612c7e565b60405180910390f35b34801561077557600080fd5b5061077e6115c1565b60405161078b9190613010565b60405180910390f35b3480156107a057600080fd5b506107bb60048036038101906107b69190612cd6565b6115d5565b6040516107c89190612c7e565b60405180910390f35b3480156107dd57600080fd5b506107f860048036038101906107f39190612df5565b611672565b6040516108059190612bca565b60405180910390f35b34801561081a57600080fd5b50610823611692565b6040516108309190612dda565b60405180910390f35b34801561084557600080fd5b50610860600480360381019061085b9190612faa565b611698565b005b34801561086e57600080fd5b50610889600480360381019061088491906133bd565b6116ba565b6040516108969190612bca565b60405180910390f35b3480156108ab57600080fd5b506108b461174e565b6040516108c1919061340c565b60405180910390f35b3480156108d657600080fd5b506108df611754565b6040516108ec9190612dda565b60405180910390f35b34801561090157600080fd5b5061091c60048036038101906109179190612df5565b611778565b005b60007f780e9d63000000000000000000000000000000000000000000000000000000007bffffffffffffffffffffffffffffffffffffffffffffffffffffffff1916827bffffffffffffffffffffffffffffffffffffffffffffffffffffffff191614806109915750610990826117fc565b5b9050919050565b6060600080546109a790613456565b80601f01602080910402602001604051908101604052809291908181526020018280546109d390613456565b8015610a205780601f106109f557610100808354040283529160200191610a20565b820191906000526020600020905b815481529060010190602001808311610a0357829003601f168201915b5050505050905090565b6000610a35826118de565b6004600083815260200190815260200160002060009054906101000a900473ffffffffffffffffffffffffffffffffffffffff169050919050565b6000610a7b82610f0b565b90508073ffffffffffffffffffffffffffffffffffffffff168373ffffffffffffffffffffffffffffffffffffffff161415610aec576040517f08c379a0000000000000000000000000000000000000000000000000000000008152600401610ae3906134fa565b60405180910390fd5b8073ffffffffffffffffffffffffffffffffffffffff16610b0b611929565b73ffffffffffffffffffffffffffffffffffffffff161480610b3a5750610b3981610b34611929565b6116ba565b5b610b79576040517f08c379a0000000000000000000000000000000000000000000000000000000008152600401610b709061358c565b60405180910390fd5b610b838383611931565b505050565b6201518081565b7f000000000000000000000000000000000000000000000000000000000000000081565b6000600880549050905090565b60136020528060005260406000206000915090505481565b60116020528060005260406000206000915090505481565b610c01610bfb611929565b826119ea565b610c40576040517f08c379a0000000000000000000000000000000000000000000000000000000008152600401610c379061361e565b60405180910390fd5b610c4b838383611a7f565b505050565b6000610c5b8361104b565b8210610c9c576040517f08c379a0000000000000000000000000000000000000000000000000000000008152600401610c93906136b0565b60405180910390fd5b600660008473ffffffffffffffffffffffffffffffffffffffff1673ffffffffffffffffffffffffffffffffffffffff168152602001908152602001600020600083815260200190815260200160002054905092915050565b610cfd611ce6565b6000733eb231c0513ee1f07306c2919ff5f9ee9308407f73ffffffffffffffffffffffffffffffffffffffff166064606147610d3991906136ff565b610d439190613788565b604051610d4f906137ea565b60006040518083038185875af1925050503d8060008114610d8c576040519150601f19603f3d011682016040523d82523d6000602084013e610d91565b606091505b5050905080610d9f57600080fd5b6000610da961113c565b73ffffffffffffffffffffffffffffffffffffffff1647604051610dcc906137ea565b60006040518083038185875af1925050503d8060008114610e09576040519150601f19603f3d011682016040523d82523d6000602084013e610e0e565b606091505b5050905080610e1c57600080fd5b5050565b610e28611ce6565b6000601060006101000a81548160ff021916908315150217905550565b610e60838383604051806020016040528060008152506114ba565b505050565b6000610e6f610bb3565b8210610eb0576040517f08c379a0000000000000000000000000000000000000000000000000000000008152600401610ea790613871565b60405180910390fd5b60088281548110610ec457610ec3613891565b5b90600052602060002001549050919050565b610ede611ce6565b80600d9080519060200190610ef4929190612a73565b5050565b601060009054906101000a900460ff1681565b6000806002600084815260200190815260200160002060009054906101000a900473ffffffffffffffffffffffffffffffffffffffff169050600073ffffffffffffffffffffffffffffffffffffffff168173ffffffffffffffffffffffffffffffffffffffff161415610fb4576040517f08c379a0000000000000000000000000000000000000000000000000000000008152600401610fab9061390c565b60405180910390fd5b80915050919050565b600d8054610fca90613456565b80601f0160208091040260200160405190810160405280929190818152602001828054610ff690613456565b80156110435780601f1061101857610100808354040283529160200191611043565b820191906000526020600020905b81548152906001019060200180831161102657829003601f168201915b505050505081565b60008073ffffffffffffffffffffffffffffffffffffffff168273ffffffffffffffffffffffffffffffffffffffff1614156110bc576040517f08c379a00000000000000000000000000000000000000000000000000000000081526004016110b39061399e565b60405180910390fd5b600360008373ffffffffffffffffffffffffffffffffffffffff1673ffffffffffffffffffffffffffffffffffffffff168152602001908152602001600020549050919050565b61110b611ce6565b6111156000611d64565b565b61111f611ce6565b6001601060006101000a81548160ff021916908315150217905550565b6000600a60009054906101000a900473ffffffffffffffffffffffffffffffffffffffff16905090565b60606001805461117590613456565b80601f01602080910402602001604051908101604052809291908181526020018280546111a190613456565b80156111ee5780601f106111c3576101008083540402835291602001916111ee565b820191906000526020600020905b8154815290600101906020018083116111d157829003601f168201915b5050505050905090565b600c60029054906101000a900461ffff1681565b61121e611217611929565b8383611e2a565b5050565b601060009054906101000a900460ff1615611272576040517f08c379a000000000000000000000000000000000000000000000000000000000815260040161126990613a0a565b60405180910390fd5b6000601360003373ffffffffffffffffffffffffffffffffffffffff1673ffffffffffffffffffffffffffffffffffffffff16815260200190815260200160002054146112f4576040517f08c379a00000000000000000000000000000000000000000000000000000000081526004016112eb90613a9c565b60405180910390fd5b6112fe600b611f97565b600061130a600b611fad565b905080601360003373ffffffffffffffffffffffffffffffffffffffff1673ffffffffffffffffffffffffffffffffffffffff16815260200190815260200160002050506000611358610bb3565b9050600f5460018261136a9190613abc565b11156113ab576040517f08c379a00000000000000000000000000000000000000000000000000000000081526004016113a290613b5e565b60405180910390fd5b600060011515611407868680806020026020016040519081016040528093929190818152602001838360200280828437600081840152601f19601f8201169050808301925050505050505060125461140233611fbb565b611fde565b15151490508061144c576040517f08c379a000000000000000000000000000000000000000000000000000000000815260040161144390613bca565b60405180910390fd5b600081801561147a57507f000000000000000000000000000000000000000000000000000000000000000042105b61149457600c60029054906101000a900461ffff166114a6565b600c60009054906101000a900461ffff165b90506114b23385611ff5565b505050505050565b6114cb6114c5611929565b836119ea565b61150a576040517f08c379a00000000000000000000000000000000000000000000000000000000081526004016115019061361e565b60405180910390fd5b61151684848484612013565b50505050565b600061152b8360125484611fde565b905092915050565b600e805461154090613456565b80601f016020809104026020016040519081016040528092919081815260200182805461156c90613456565b80156115b95780601f1061158e576101008083540402835291602001916115b9565b820191906000526020600020905b81548152906001019060200180831161159c57829003601f168201915b505050505081565b600c60009054906101000a900461ffff1681565b60606115e08261206f565b61161f576040517f08c379a000000000000000000000000000000000000000000000000000000000815260040161161690613c5c565b60405180910390fd5b60006116296120db565b90506000815111611649576040518060200160405280600081525061166a565b8060405160200161165a9190613cb8565b6040516020818303038152906040525b915050919050565b60146020528060005260406000206000915054906101000a900460ff1681565b600f5481565b6116a0611ce6565b80600e90805190602001906116b6929190612a73565b5050565b6000600560008473ffffffffffffffffffffffffffffffffffffffff1673ffffffffffffffffffffffffffffffffffffffff16815260200190815260200160002060008373ffffffffffffffffffffffffffffffffffffffff1673ffffffffffffffffffffffffffffffffffffffff16815260200190815260200160002060009054906101000a900460ff16905092915050565b60125481565b7f000000000000000000000000000000000000000000000000000000000000000081565b611780611ce6565b600073ffffffffffffffffffffffffffffffffffffffff168173ffffffffffffffffffffffffffffffffffffffff1614156117f0576040517f08c379a00000000000000000000000000000000000000000000000000000000081526004016117e790613d41565b60405180910390fd5b6117f981611d64565b50565b60007f80ac58cd000000000000000000000000000000000000000000000000000000007bffffffffffffffffffffffffffffffffffffffffffffffffffffffff1916827bffffffffffffffffffffffffffffffffffffffffffffffffffffffff191614806118c757507f5b5e139f000000000000000000000000000000000000000000000000000000007bffffffffffffffffffffffffffffffffffffffffffffffffffffffff1916827bffffffffffffffffffffffffffffffffffffffffffffffffffffffff1916145b806118d757506118d68261216d565b5b9050919050565b6118e78161206f565b611926576040517f08c379a000000000000000000000000000000000000000000000000000000000815260040161191d9061390c565b60405180910390fd5b50565b600033905090565b816004600083815260200190815260200160002060006101000a81548173ffffffffffffffffffffffffffffffffffffffff021916908373ffffffffffffffffffffffffffffffffffffffff160217905550808273ffffffffffffffffffffffffffffffffffffffff166119a483610f0b565b73ffffffffffffffffffffffffffffffffffffffff167f8c5be1e5ebec7d5bd14f71427d1e84f3dd0314c0f7b2291e5b200ac8c7c3b92560405160405180910390a45050565b6000806119f683610f0b565b90508073ffffffffffffffffffffffffffffffffffffffff168473ffffffffffffffffffffffffffffffffffffffff161480611a385750611a3781856116ba565b5b80611a7657508373ffffffffffffffffffffffffffffffffffffffff16611a5e84610a2a565b73ffffffffffffffffffffffffffffffffffffffff16145b91505092915050565b8273ffffffffffffffffffffffffffffffffffffffff16611a9f82610f0b565b73ffffffffffffffffffffffffffffffffffffffff1614611af5576040517f08c379a0000000000000000000000000000000000000000000000000000000008152600401611aec90613dd3565b60405180910390fd5b600073ffffffffffffffffffffffffffffffffffffffff168273ffffffffffffffffffffffffffffffffffffffff161415611b65576040517f08c379a0000000000000000000000000000000000000000000000000000000008152600401611b5c90613e65565b60405180910390fd5b611b708383836121d7565b611b7b600082611931565b6001600360008573ffffffffffffffffffffffffffffffffffffffff1673ffffffffffffffffffffffffffffffffffffffff1681526020019081526020016000206000828254611bcb9190613e85565b925050819055506001600360008473ffffffffffffffffffffffffffffffffffffffff1673ffffffffffffffffffffffffffffffffffffffff1681526020019081526020016000206000828254611c229190613abc565b92505081905550816002600083815260200190815260200160002060006101000a81548173ffffffffffffffffffffffffffffffffffffffff021916908373ffffffffffffffffffffffffffffffffffffffff160217905550808273ffffffffffffffffffffffffffffffffffffffff168473ffffffffffffffffffffffffffffffffffffffff167fddf252ad1be2c89b69c2b068fc378daa952ba7f163c4a11628f55a4df523b3ef60405160405180910390a4611ce18383836122eb565b505050565b611cee611929565b73ffffffffffffffffffffffffffffffffffffffff16611d0c61113c565b73ffffffffffffffffffffffffffffffffffffffff1614611d62576040517f08c379a0000000000000000000000000000000000000000000000000000000008152600401611d5990613f05565b60405180910390fd5b565b6000600a60009054906101000a900473ffffffffffffffffffffffffffffffffffffffff16905081600a60006101000a81548173ffffffffffffffffffffffffffffffffffffffff021916908373ffffffffffffffffffffffffffffffffffffffff1602179055508173ffffffffffffffffffffffffffffffffffffffff168173ffffffffffffffffffffffffffffffffffffffff167f8be0079c531659141344cd1fd0a4f28419497f9722a3daafe3b4186f6b6457e060405160405180910390a35050565b8173ffffffffffffffffffffffffffffffffffffffff168373ffffffffffffffffffffffffffffffffffffffff161415611e99576040517f08c379a0000000000000000000000000000000000000000000000000000000008152600401611e9090613f71565b60405180910390fd5b80600560008573ffffffffffffffffffffffffffffffffffffffff1673ffffffffffffffffffffffffffffffffffffffff16815260200190815260200160002060008473ffffffffffffffffffffffffffffffffffffffff1673ffffffffffffffffffffffffffffffffffffffff16815260200190815260200160002060006101000a81548160ff0219169083151502179055508173ffffffffffffffffffffffffffffffffffffffff168373ffffffffffffffffffffffffffffffffffffffff167f17307eab39ab6107e8899845ad3d59bd9653f200f220920489ca2b5937696c3183604051611f8a9190612bca565b60405180910390a3505050565b6001816000016000828254019250508190555050565b600081600001549050919050565b60008173ffffffffffffffffffffffffffffffffffffffff1660001b9050919050565b600082611feb85846122f0565b1490509392505050565b61200f828260405180602001604052806000815250612346565b5050565b61201e848484611a7f565b61202a848484846123a1565b612069576040517f08c379a000000000000000000000000000000000000000000000000000000000815260040161206090614003565b60405180910390fd5b50505050565b60008073ffffffffffffffffffffffffffffffffffffffff166002600084815260200190815260200160002060009054906101000a900473ffffffffffffffffffffffffffffffffffffffff1673ffffffffffffffffffffffffffffffffffffffff1614159050919050565b6060600d80546120ea90613456565b80601f016020809104026020016040519081016040528092919081815260200182805461211690613456565b80156121635780601f1061213857610100808354040283529160200191612163565b820191906000526020600020905b81548152906001019060200180831161214657829003601f168201915b5050505050905090565b60007f01ffc9a7000000000000000000000000000000000000000000000000000000007bffffffffffffffffffffffffffffffffffffffffffffffffffffffff1916827bffffffffffffffffffffffffffffffffffffffffffffffffffffffff1916149050919050565b6121e2838383612529565b600073ffffffffffffffffffffffffffffffffffffffff168373ffffffffffffffffffffffffffffffffffffffff161415612225576122208161252e565b612264565b8173ffffffffffffffffffffffffffffffffffffffff168373ffffffffffffffffffffffffffffffffffffffff1614612263576122628382612577565b5b5b600073ffffffffffffffffffffffffffffffffffffffff168273ffffffffffffffffffffffffffffffffffffffff1614156122a7576122a2816126e4565b6122e6565b8273ffffffffffffffffffffffffffffffffffffffff168273ffffffffffffffffffffffffffffffffffffffff16146122e5576122e482826127b5565b5b5b505050565b505050565b60008082905060005b845181101561233b576123268286838151811061231957612318613891565b5b6020026020010151612834565b9150808061233390614023565b9150506122f9565b508091505092915050565b612350838361285f565b61235d60008484846123a1565b61239c576040517f08c379a000000000000000000000000000000000000000000000000000000000815260040161239390614003565b60405180910390fd5b505050565b60006123c28473ffffffffffffffffffffffffffffffffffffffff16612a39565b1561251c578373ffffffffffffffffffffffffffffffffffffffff1663150b7a026123eb611929565b8786866040518563ffffffff1660e01b815260040161240d94939291906140c1565b6020604051808303816000875af192505050801561244957506040513d601f19601f820116820180604052508101906124469190614122565b60015b6124cc573d8060008114612479576040519150601f19603f3d011682016040523d82523d6000602084013e61247e565b606091505b506000815114156124c4576040517f08c379a00000000000000000000000000000000000000000000000000000000081526004016124bb90614003565b60405180910390fd5b805181602001fd5b63150b7a0260e01b7bffffffffffffffffffffffffffffffffffffffffffffffffffffffff1916817bffffffffffffffffffffffffffffffffffffffffffffffffffffffff191614915050612521565b600190505b949350505050565b505050565b6008805490506009600083815260200190815260200160002081905550600881908060018154018082558091505060019003906000526020600020016000909190919091505550565b600060016125848461104b565b61258e9190613e85565b9050600060076000848152602001908152602001600020549050818114612673576000600660008673ffffffffffffffffffffffffffffffffffffffff1673ffffffffffffffffffffffffffffffffffffffff168152602001908152602001600020600084815260200190815260200160002054905080600660008773ffffffffffffffffffffffffffffffffffffffff1673ffffffffffffffffffffffffffffffffffffffff168152602001908152602001600020600084815260200190815260200160002081905550816007600083815260200190815260200160002081905550505b6007600084815260200190815260200160002060009055600660008573ffffffffffffffffffffffffffffffffffffffff1673ffffffffffffffffffffffffffffffffffffffff16815260200190815260200160002060008381526020019081526020016000206000905550505050565b600060016008805490506126f89190613e85565b905060006009600084815260200190815260200160002054905060006008838154811061272857612727613891565b5b90600052602060002001549050806008838154811061274a57612749613891565b5b9060005260206000200181905550816009600083815260200190815260200160002081905550600960008581526020019081526020016000206000905560088054806127995761279861414f565b5b6001900381819060005260206000200160009055905550505050565b60006127c08361104b565b905081600660008573ffffffffffffffffffffffffffffffffffffffff1673ffffffffffffffffffffffffffffffffffffffff168152602001908152602001600020600083815260200190815260200160002081905550806007600084815260200190815260200160002081905550505050565b600081831061284c576128478284612a5c565b612857565b6128568383612a5c565b5b905092915050565b600073ffffffffffffffffffffffffffffffffffffffff168273ffffffffffffffffffffffffffffffffffffffff1614156128cf576040517f08c379a00000000000000000000000000000000000000000000000000000000081526004016128c6906141ca565b60405180910390fd5b6128d88161206f565b15612918576040517f08c379a000000000000000000000000000000000000000000000000000000000815260040161290f90614236565b60405180910390fd5b612924600083836121d7565b6001600360008473ffffffffffffffffffffffffffffffffffffffff1673ffffffffffffffffffffffffffffffffffffffff16815260200190815260200160002060008282546129749190613abc565b92505081905550816002600083815260200190815260200160002060006101000a81548173ffffffffffffffffffffffffffffffffffffffff021916908373ffffffffffffffffffffffffffffffffffffffff160217905550808273ffffffffffffffffffffffffffffffffffffffff16600073ffffffffffffffffffffffffffffffffffffffff167fddf252ad1be2c89b69c2b068fc378daa952ba7f163c4a11628f55a4df523b3ef60405160405180910390a4612a35600083836122eb565b5050565b6000808273ffffffffffffffffffffffffffffffffffffffff163b119050919050565b600082600052816020526040600020905092915050565b828054612a7f90613456565b90600052602060002090601f016020900481019282612aa15760008555612ae8565b82601f10612aba57805160ff1916838001178555612ae8565b82800160010185558215612ae8579182015b82811115612ae7578251825591602001919060010190612acc565b5b509050612af59190612af9565b5090565b5b80821115612b12576000816000905550600101612afa565b5090565b6000604051905090565b600080fd5b600080fd5b60007fffffffff0000000000000000000000000000000000000000000000000000000082169050919050565b612b5f81612b2a565b8114612b6a57600080fd5b50565b600081359050612b7c81612b56565b92915050565b600060208284031215612b9857612b97612b20565b5b6000612ba684828501612b6d565b91505092915050565b60008115159050919050565b612bc481612baf565b82525050565b6000602082019050612bdf6000830184612bbb565b92915050565b600081519050919050565b600082825260208201905092915050565b60005b83811015612c1f578082015181840152602081019050612c04565b83811115612c2e576000848401525b50505050565b6000601f19601f8301169050919050565b6000612c5082612be5565b612c5a8185612bf0565b9350612c6a818560208601612c01565b612c7381612c34565b840191505092915050565b60006020820190508181036000830152612c988184612c45565b905092915050565b6000819050919050565b612cb381612ca0565b8114612cbe57600080fd5b50565b600081359050612cd081612caa565b92915050565b600060208284031215612cec57612ceb612b20565b5b6000612cfa84828501612cc1565b91505092915050565b600073ffffffffffffffffffffffffffffffffffffffff82169050919050565b6000612d2e82612d03565b9050919050565b612d3e81612d23565b82525050565b6000602082019050612d596000830184612d35565b92915050565b612d6881612d23565b8114612d7357600080fd5b50565b600081359050612d8581612d5f565b92915050565b60008060408385031215612da257612da1612b20565b5b6000612db085828601612d76565b9250506020612dc185828601612cc1565b9150509250929050565b612dd481612ca0565b82525050565b6000602082019050612def6000830184612dcb565b92915050565b600060208284031215612e0b57612e0a612b20565b5b6000612e1984828501612d76565b91505092915050565b600080600060608486031215612e3b57612e3a612b20565b5b6000612e4986828701612d76565b9350506020612e5a86828701612d76565b9250506040612e6b86828701612cc1565b9150509250925092565b600080fd5b600080fd5b7f4e487b7100000000000000000000000000000000000000000000000000000000600052604160045260246000fd5b612eb782612c34565b810181811067ffffffffffffffff82111715612ed657612ed5612e7f565b5b80604052505050565b6000612ee9612b16565b9050612ef58282612eae565b919050565b600067ffffffffffffffff821115612f1557612f14612e7f565b5b612f1e82612c34565b9050602081019050919050565b82818337600083830152505050565b6000612f4d612f4884612efa565b612edf565b905082815260208101848484011115612f6957612f68612e7a565b5b612f74848285612f2b565b509392505050565b600082601f830112612f9157612f90612e75565b5b8135612fa1848260208601612f3a565b91505092915050565b600060208284031215612fc057612fbf612b20565b5b600082013567ffffffffffffffff811115612fde57612fdd612b25565b5b612fea84828501612f7c565b91505092915050565b600061ffff82169050919050565b61300a81612ff3565b82525050565b60006020820190506130256000830184613001565b92915050565b61303481612baf565b811461303f57600080fd5b50565b6000813590506130518161302b565b92915050565b6000806040838503121561306e5761306d612b20565b5b600061307c85828601612d76565b925050602061308d85828601613042565b9150509250929050565b600080fd5b600080fd5b60008083601f8401126130b7576130b6612e75565b5b8235905067ffffffffffffffff8111156130d4576130d3613097565b5b6020830191508360208202830111156130f0576130ef61309c565b5b9250929050565b6000806020838503121561310e5761310d612b20565b5b600083013567ffffffffffffffff81111561312c5761312b612b25565b5b613138858286016130a1565b92509250509250929050565b600067ffffffffffffffff82111561315f5761315e612e7f565b5b61316882612c34565b9050602081019050919050565b600061318861318384613144565b612edf565b9050828152602081018484840111156131a4576131a3612e7a565b5b6131af848285612f2b565b509392505050565b600082601f8301126131cc576131cb612e75565b5b81356131dc848260208601613175565b91505092915050565b600080600080608085870312156131ff576131fe612b20565b5b600061320d87828801612d76565b945050602061321e87828801612d76565b935050604061322f87828801612cc1565b925050606085013567ffffffffffffffff8111156132505761324f612b25565b5b61325c878288016131b7565b91505092959194509250565b600067ffffffffffffffff82111561328357613282612e7f565b5b602082029050602081019050919050565b6000819050919050565b6132a781613294565b81146132b257600080fd5b50565b6000813590506132c48161329e565b92915050565b60006132dd6132d884613268565b612edf565b90508083825260208201905060208402830185811115613300576132ff61309c565b5b835b81811015613329578061331588826132b5565b845260208401935050602081019050613302565b5050509392505050565b600082601f83011261334857613347612e75565b5b81356133588482602086016132ca565b91505092915050565b6000806040838503121561337857613377612b20565b5b600083013567ffffffffffffffff81111561339657613395612b25565b5b6133a285828601613333565b92505060206133b3858286016132b5565b9150509250929050565b600080604083850312156133d4576133d3612b20565b5b60006133e285828601612d76565b92505060206133f385828601612d76565b9150509250929050565b61340681613294565b82525050565b600060208201905061342160008301846133fd565b92915050565b7f4e487b7100000000000000000000000000000000000000000000000000000000600052602260045260246000fd5b6000600282049050600182168061346e57607f821691505b6020821081141561348257613481613427565b5b50919050565b7f4552433732313a20617070726f76616c20746f2063757272656e74206f776e6560008201527f7200000000000000000000000000000000000000000000000000000000000000602082015250565b60006134e4602183612bf0565b91506134ef82613488565b604082019050919050565b60006020820190508181036000830152613513816134d7565b9050919050565b7f4552433732313a20617070726f76652063616c6c6572206973206e6f7420746f60008201527f6b656e206f776e6572206e6f7220617070726f76656420666f7220616c6c0000602082015250565b6000613576603e83612bf0565b91506135818261351a565b604082019050919050565b600060208201905081810360008301526135a581613569565b9050919050565b7f4552433732313a2063616c6c6572206973206e6f7420746f6b656e206f776e6560008201527f72206e6f7220617070726f766564000000000000000000000000000000000000602082015250565b6000613608602e83612bf0565b9150613613826135ac565b604082019050919050565b60006020820190508181036000830152613637816135fb565b9050919050565b7f455243373231456e756d657261626c653a206f776e657220696e646578206f7560008201527f74206f6620626f756e6473000000000000000000000000000000000000000000602082015250565b600061369a602b83612bf0565b91506136a58261363e565b604082019050919050565b600060208201905081810360008301526136c98161368d565b9050919050565b7f4e487b7100000000000000000000000000000000000000000000000000000000600052601160045260246000fd5b600061370a82612ca0565b915061371583612ca0565b9250817fffffffffffffffffffffffffffffffffffffffffffffffffffffffffffffffff048311821515161561374e5761374d6136d0565b5b828202905092915050565b7f4e487b7100000000000000000000000000000000000000000000000000000000600052601260045260246000fd5b600061379382612ca0565b915061379e83612ca0565b9250826137ae576137ad613759565b5b828204905092915050565b600081905092915050565b50565b60006137d46000836137b9565b91506137df826137c4565b600082019050919050565b60006137f5826137c7565b9150819050919050565b7f455243373231456e756d657261626c653a20676c6f62616c20696e646578206f60008201527f7574206f6620626f756e64730000000000000000000000000000000000000000602082015250565b600061385b602c83612bf0565b9150613866826137ff565b604082019050919050565b6000602082019050818103600083015261388a8161384e565b9050919050565b7f4e487b7100000000000000000000000000000000000000000000000000000000600052603260045260246000fd5b7f4552433732313a20696e76616c696420746f6b656e2049440000000000000000600082015250565b60006138f6601883612bf0565b9150613901826138c0565b602082019050919050565b60006020820190508181036000830152613925816138e9565b9050919050565b7f4552433732313a2061646472657373207a65726f206973206e6f74206120766160008201527f6c6964206f776e65720000000000000000000000000000000000000000000000602082015250565b6000613988602983612bf0565b91506139938261392c565b604082019050919050565b600060208201905081810360008301526139b78161397b565b9050919050565b7f426c61636b20476c6f7665206973207061757365640000000000000000000000600082015250565b60006139f4601583612bf0565b91506139ff826139be565b602082019050919050565b60006020820190508181036000830152613a23816139e7565b9050919050565b7f412077616c6c65742063616e206e6f74206d696e74206d6f7265207468616e2060008201527f3120426c61636b20476c6f766500000000000000000000000000000000000000602082015250565b6000613a86602d83612bf0565b9150613a9182613a2a565b604082019050919050565b60006020820190508181036000830152613ab581613a79565b9050919050565b6000613ac782612ca0565b9150613ad283612ca0565b9250827fffffffffffffffffffffffffffffffffffffffffffffffffffffffffffffffff03821115613b0757613b066136d0565b5b828201905092915050565b7f4d6178204e4654204c696d697420657863656564656400000000000000000000600082015250565b6000613b48601683612bf0565b9150613b5382613b12565b602082019050919050565b60006020820190508181036000830152613b7781613b3b565b9050919050565b7f496e76616c6964206d65726b6c652070726f6f66000000000000000000000000600082015250565b6000613bb4601483612bf0565b9150613bbf82613b7e565b602082019050919050565b60006020820190508181036000830152613be381613ba7565b9050919050565b7f4552433732316d657461646174613a2055524920717565727920666f72206e6f60008201527f6e6578697374656e7420746f6b656e0000000000000000000000000000000000602082015250565b6000613c46602f83612bf0565b9150613c5182613bea565b604082019050919050565b60006020820190508181036000830152613c7581613c39565b9050919050565b600081905092915050565b6000613c9282612be5565b613c9c8185613c7c565b9350613cac818560208601612c01565b80840191505092915050565b6000613cc48284613c87565b915081905092915050565b7f4f776e61626c653a206e6577206f776e657220697320746865207a65726f206160008201527f6464726573730000000000000000000000000000000000000000000000000000602082015250565b6000613d2b602683612bf0565b9150613d3682613ccf565b604082019050919050565b60006020820190508181036000830152613d5a81613d1e565b9050919050565b7f4552433732313a207472616e736665722066726f6d20696e636f72726563742060008201527f6f776e6572000000000000000000000000000000000000000000000000000000602082015250565b6000613dbd602583612bf0565b9150613dc882613d61565b604082019050919050565b60006020820190508181036000830152613dec81613db0565b9050919050565b7f4552433732313a207472616e7366657220746f20746865207a65726f2061646460008201527f7265737300000000000000000000000000000000000000000000000000000000602082015250565b6000613e4f602483612bf0565b9150613e5a82613df3565b604082019050919050565b60006020820190508181036000830152613e7e81613e42565b9050919050565b6000613e9082612ca0565b9150613e9b83612ca0565b925082821015613eae57613ead6136d0565b5b828203905092915050565b7f4f776e61626c653a2063616c6c6572206973206e6f7420746865206f776e6572600082015250565b6000613eef602083612bf0565b9150613efa82613eb9565b602082019050919050565b60006020820190508181036000830152613f1e81613ee2565b9050919050565b7f4552433732313a20617070726f766520746f2063616c6c657200000000000000600082015250565b6000613f5b601983612bf0565b9150613f6682613f25565b602082019050919050565b60006020820190508181036000830152613f8a81613f4e565b9050919050565b7f4552433732313a207472616e7366657220746f206e6f6e20455243373231526560008201527f63656976657220696d706c656d656e7465720000000000000000000000000000602082015250565b6000613fed603283612bf0565b9150613ff882613f91565b604082019050919050565b6000602082019050818103600083015261401c81613fe0565b9050919050565b600061402e82612ca0565b91507fffffffffffffffffffffffffffffffffffffffffffffffffffffffffffffffff821415614061576140606136d0565b5b600182019050919050565b600081519050919050565b600082825260208201905092915050565b60006140938261406c565b61409d8185614077565b93506140ad818560208601612c01565b6140b681612c34565b840191505092915050565b60006080820190506140d66000830187612d35565b6140e36020830186612d35565b6140f06040830185612dcb565b81810360608301526141028184614088565b905095945050505050565b60008151905061411c81612b56565b92915050565b60006020828403121561413857614137612b20565b5b60006141468482850161410d565b91505092915050565b7f4e487b7100000000000000000000000000000000000000000000000000000000600052603160045260246000fd5b7f4552433732313a206d696e7420746f20746865207a65726f2061646472657373600082015250565b60006141b4602083612bf0565b91506141bf8261417e565b602082019050919050565b600060208201905081810360008301526141e3816141a7565b9050919050565b7f4552433732313a20746f6b656e20616c7265616479206d696e74656400000000600082015250565b6000614220601c83612bf0565b915061422b826141ea565b602082019050919050565b6000602082019050818103600083015261424f81614213565b905091905056fea26469706673582212201c2260cfe9cb53d6537794214127d4229235b6af7a513034aa323f819d4dc6e564736f6c634300080a0033",
  "linkReferences": {},
  "deployedLinkReferences": {}
}